:02000000F429E1
:10000800FF00030E8301C4000A08C5008A017008B6
:10001800A1007108A0000408A2000B1D6128F83097
:100028008100A80A0319A90AAA0A0319AB0ABF0181
:1000380004303F0203185B283F08F1000130F0004C
:10004800710803192B28F00D7010FF3E2528700841
:10005800BE000808F00503194A283F08303E84000E
:100068000008F0007008031D4A283F08403EF100D0
:1000780071088400000AF00071088400700880008C
:100088003F08303E84000130800059283E080805AA
:10009800F000031D59283F08303E8400000803196A
:1000A80059283F08303E84008001BF0A1C28061EDC
:1000B8005F280130AF00FB308B052108F0002008D5
:1000C800F1002208840045088A00440E8300FF0ED0
:0400D8007F0E09008E
:0E00DC00831203133D088A003C0882000800CE
:1000EA0083120313A801A90148082902031D7F28C6
:0C00FA0047082802031882287928080013
:1001060083120313A70ABB0104303B020318A2287B
:100116003B08233E840046080006031D9328A028BA
:100126003408383EF1003B08233E84000008F00006
:100136007108840070088000B40ABB0A8728B401DD
:100146004608083A013003190030F10007302B0247
:10015600031DAF28D0302A02013003180030F0000A
:100166007108F0050319CB2801308700B701043068
:1001760037020318CA283708233E84000008860081
:100186000530C7000030C8007520B70ABA28A32872
:10019600AA01AB014608083A013003190030F10004
:1001A6001F302B02031DD92840302A0201300318C4
:1001B6000030F0007108F0050319FE2804308700AE
:1001C600460886000530C7000030C800752001309B
:1001D6008700B701033037020318FD283708383E79
:1001E6008400000886000530C7000030C80075206E
:1001F600B70AED28CD28AA01AB014608083A013016
:1002060003190030F10003302B02031D0C29E830DE
:100216002A02013003180030F0007108F0050319B6
:10022600312902308700460886000530C7000030B5
:10023600C800752001308700B70103303702031864
:1002460030293708383E8400000886000530C7008C
:100256000030C8007520B70A20290029AA01AB0181
:0202660008008E
:100268006E208A110A128000840ABC0A0319BD0A8A
:08027800F003031D3429080006
:100280002730831203132B02031D482910302A0242
:1002900003185E2901308700B701043037020318C4
:1002A0005D293708233E8400000886000530C7001A
:1002B0000030C8007520B70A4D294029AA01AB01BA
:0202C000080034
:1002C200831203132C08083A013003190030F1009D
:1002D2000B302B02031D6F29B8302A02013003189C
:1002E2000030F0007108F00503198B2901308700F6
:1002F200B7010430370203188A293708233E8400E5
:10030200000886000530C7000030C8007520B70A13
:100312007A296129AA01AB012C08083A0130031994
:100322000030F10027302B02031D992910302A02D8
:10033200013003180030F0007108F0050319BE29DE
:100342000430870086010530C7000030C8007520E0
:10035200013087000130B700043037020318BD298D
:100362003708233E8400000886000530C7000030AD
:10037200C8007520B70AAD298D29AA01AB012C0846
:10038200083A013003190030F10003302B02031D3B
:10039200CC29E8302A02013003180030F00071083D
:1003A200F0050319F1290230870086010530C700E4
:1003B2000030C8007520013087000130B7000430DA
:1003C20037020318F0293708233E8400000886000C
:1003D2000530C7000030C8007520B70AE029C029DF
:0603E200AA01AB010800B6
:1003E80083120313A3010130A4000230A5000330D7
:1003F800A600A701A801A901AA01AB01AC01AD01A2
:10040800AE01AF01B001B101B201B301B4010830CE
:10041800B5000130B600873083168100F8308312AA
:100428008100A0308B0410308316860008308700C6
:100438000F30880083128601870110308800F4305D
:10044800C7000130C8007520BF0104303F020318FF
:10045800332A3F08403E84008001BF0A292A2C081D
:10046800C60083200130B6003508083A0319532A1C
:100478003508013EF100F2010318F20A0030720655
:10048800031D482A71082C06031D4E2A0230350721
:10049800AC00502A350AAC000830B500B601BB01E3
:1004A80004303B0203188B2A3B08403E840003308B
:1004B8000002031C892A2E08003A031D892A3B08DA
:1004C8002C020318762A2C08013EF100F2010318C9
:1004D800F20A00307206031D732A71083B060319DD
:1004E800762A772A892A3B08023A031D7D2A013099
:1004F800AD003B08403E840080012C08B5003B0855
:10050800AC000130AE00B6018B2ABB0A542A36086B
:100518000319952A2D080319952A0230AC07AD0155
:10052800992A36080319992AAC0A2C08033C03189F
:100538009E2AAC012708043A031DA52AAE01AC0186
:10054800A7012F080319AA2A6121AF012F0803194F
:10055800AF2A6121AF01871DB62A203088004021CB
:0805680010308800332AB72A85
:02400E004A2F37
:00000001FF
